{
  "_format": "hh-sol-artifact-1",
  "contractName": "CertificateRegistry",
  "sourceName": "contracts/CertificateRegistry.sol",
  "abi": [
    {
      "inputs": [],
      "stateMutability": "nonpayable",
      "type": "constructor"
    },
    {
      "anonymous": false,
      "inputs": [
        {
          "indexed": true,
          "internalType": "bytes32",
          "name": "certificateHash",
          "type": "bytes32"
        },
        {
          "indexed": true,
          "internalType": "string",
          "name": "certificateId",
          "type": "string"
        },
        {
          "indexed": true,
          "internalType": "address",
          "name": "issuer",
          "type": "address"
        },
        {
          "indexed": false,
          "internalType": "string",
          "name": "metadataURI",
          "type": "string"
        }
      ],
      "name": "CertificateIssued",
      "type": "event"
    },
    {
      "anonymous": false,
      "inputs": [
        {
          "indexed": true,
          "internalType": "bytes32",
          "name": "certificateHash",
          "type": "bytes32"
        },
        {
          "indexed": true,
          "internalType": "string",
          "name": "certificateId",
          "type": "string"
        },
        {
          "indexed": true,
          "internalType": "address",
          "name": "revokedBy",
          "type": "address"
        },
        {
          "indexed": false,
          "internalType": "string",
          "name": "reason",
          "type": "string"
        }
      ],
      "name": "CertificateRevoked",
      "type": "event"
    },
    {
      "anonymous": false,
      "inputs": [
        {
          "indexed": true,
          "internalType": "address",
          "name": "issuer",
          "type": "address"
        },
        {
          "indexed": false,
          "internalType": "bool",
          "name": "enabled",
          "type": "bool"
        }
      ],
      "name": "IssuerAuthorized",
      "type": "event"
    },
    {
      "inputs": [
        {
          "internalType": "address",
          "name": "",
          "type": "address"
        }
      ],
      "name": "authorizedIssuers",
      "outputs": [
        {
          "internalType": "bool",
          "name": "",
          "type": "bool"
        }
      ],
      "stateMutability": "view",
      "type": "function"
    },
    {
      "inputs": [
        {
          "internalType": "string",
          "name": "certificateId",
          "type": "string"
        }
      ],
      "name": "getCertificateById",
      "outputs": [
        {
          "internalType": "bool",
          "name": "exists",
          "type": "bool"
        },
        {
          "internalType": "bool",
          "name": "revoked",
          "type": "bool"
        },
        {
          "internalType": "bytes32",
          "name": "certificateHash",
          "type": "bytes32"
        },
        {
          "internalType": "string",
          "name": "metadataURI",
          "type": "string"
        },
        {
          "internalType": "string",
          "name": "metadataDigest",
          "type": "string"
        },
        {
          "internalType": "address",
          "name": "issuer",
          "type": "address"
        },
        {
          "internalType": "uint256",
          "name": "issuedAt",
          "type": "uint256"
        },
        {
          "internalType": "uint256",
          "name": "revokedAt",
          "type": "uint256"
        }
      ],
      "stateMutability": "view",
      "type": "function"
    },
    {
      "inputs": [
        {
          "internalType": "bytes32",
          "name": "certificateHash",
          "type": "bytes32"
        },
        {
          "internalType": "string",
          "name": "certificateId",
          "type": "string"
        },
        {
          "internalType": "string",
          "name": "metadataURI",
          "type": "string"
        },
        {
          "internalType": "string",
          "name": "metadataDigest",
          "type": "string"
        }
      ],
      "name": "issueCertificate",
      "outputs": [
        {
          "internalType": "bool",
          "name": "",
          "type": "bool"
        }
      ],
      "stateMutability": "nonpayable",
      "type": "function"
    },
    {
      "inputs": [],
      "name": "owner",
      "outputs": [
        {
          "internalType": "address",
          "name": "",
          "type": "address"
        }
      ],
      "stateMutability": "view",
      "type": "function"
    },
    {
      "inputs": [
        {
          "internalType": "bytes32",
          "name": "certificateHash",
          "type": "bytes32"
        },
        {
          "internalType": "string",
          "name": "reason",
          "type": "string"
        }
      ],
      "name": "revokeCertificate",
      "outputs": [
        {
          "internalType": "bool",
          "name": "",
          "type": "bool"
        }
      ],
      "stateMutability": "nonpayable",
      "type": "function"
    },
    {
      "inputs": [
        {
          "internalType": "address",
          "name": "issuer",
          "type": "address"
        },
        {
          "internalType": "bool",
          "name": "enabled",
          "type": "bool"
        }
      ],
      "name": "setIssuer",
      "outputs": [],
      "stateMutability": "nonpayable",
      "type": "function"
    },
    {
      "inputs": [
        {
          "internalType": "bytes32",
          "name": "certificateHash",
          "type": "bytes32"
        }
      ],
      "name": "verifyCertificate",
      "outputs": [
        {
          "internalType": "bool",
          "name": "exists",
          "type": "bool"
        },
        {
          "internalType": "bool",
          "name": "revoked",
          "type": "bool"
        },
        {
          "internalType": "string",
          "name": "certificateId",
          "type": "string"
        },
        {
          "internalType": "string",
          "name": "metadataURI",
          "type": "string"
        },
        {
          "internalType": "string",
          "name": "metadataDigest",
          "type": "string"
        },
        {
          "internalType": "address",
          "name": "issuer",
          "type": "address"
        },
        {
          "internalType": "uint256",
          "name": "issuedAt",
          "type": "uint256"
        },
        {
          "internalType": "uint256",
          "name": "revokedAt",
          "type": "uint256"
        }
      ],
      "stateMutability": "view",
      "type": "function"
    }
  ],
  "bytecode": "0x608060405234801561001057600080fd5b50336000806101000a81548173ffffffffffffffffffffffffffffffffffffffff021916908373ffffffffffffffffffffffffffffffffffffffff16021790555060018060003373ffffffffffffffffffffffffffffffffffffffff1673ffffffffffffffffffffffffffffffffffffffff16815260200190815260200160002060006101000a81548160ff021916908315150217905550611d8f806100b76000396000f3fe608060405234801561001057600080fd5b506004361061007d5760003560e01c8063850c17681161005b578063850c1768146101055780638da5cb5b1461013c578063a246b9681461015a578063f731fa0f1461018a5761007d565b806345e373ed14610082578063495289be146100b95780635bf4adfb146100d5575b600080fd5b61009c6004803603810190610097919061107c565b6101ba565b6040516100b09897969594939291906111e7565b60405180910390f35b6100d360048036038101906100ce91906112cb565b6104b6565b005b6100ef60048036038101906100ea9190611337565b6105ed565b6040516100fc9190611397565b60405180910390f35b61011f600480360381019061011a91906113b2565b6107f8565b6040516101339897969594939291906113df565b60405180910390f35b610144610acc565b6040516101519190611472565b60405180910390f35b610174600480360381019061016f919061148d565b610af0565b6040516101819190611397565b60405180910390f35b6101a4600480360381019061019f9190611556565b610fed565b6040516101b19190611397565b60405180910390f35b600080600060608060008060008060038b8b6040516101da9291906115c2565b9081526020016040518091039020549050600060026000838152602001908152602001600020604051806101200160405290816000820160009054906101000a900460ff161515151581526020016000820160019054906101000a900460ff161515151581526020016001820154815260200160028201805461025c9061160a565b80601f01602080910402602001604051908101604052809291908181526020018280546102889061160a565b80156102d55780601f106102aa576101008083540402835291602001916102d5565b820191906000526020600020905b8154815290600101906020018083116102b857829003601f168201915b505050505081526020016003820180546102ee9061160a565b80601f016020809104026020016040519081016040528092919081815260200182805461031a9061160a565b80156103675780601f1061033c57610100808354040283529160200191610367565b820191906000526020600020905b81548152906001019060200180831161034a57829003601f168201915b505050505081526020016004820180546103809061160a565b80601f01602080910402602001604051908101604052809291908181526020018280546103ac9061160a565b80156103f95780601f106103ce576101008083540402835291602001916103f9565b820191906000526020600020905b8154815290600101906020018083116103dc57829003601f168201915b505050505081526020016005820160009054906101000a900473ffffffffffffffffffffffffffffffffffffffff1673ffffffffffffffffffffffffffffffffffffffff1673ffffffffffffffffffffffffffffffffffffffff16815260200160068201548152602001600782015481525050905080600001518160200151826040015183608001518460a001518560c001518660e001518761010001519950995099509950995099509950995050509295985092959890939650565b60008054906101000a900473ffffffffffffffffffffffffffffffffffffffff1673ffffffffffffffffffffffffffffffffffffffff163373ffffffffffffffffffffffffffffffffffffffff1614610544576040517f08c379a000000000000000000000000000000000000000000000000000000000815260040161053b906116ad565b60405180910390fd5b80600160008473ffffffffffffffffffffffffffffffffffffffff1673ffffffffffffffffffffffffffffffffffffffff16815260200190815260200160002060006101000a81548160ff0219169083151502179055508173ffffffffffffffffffffffffffffffffffffffff167f323f1985f95ab4281ac5356feae087f07598411565971dd57673e77bf9aecea8826040516105e19190611397565b60405180910390a25050565b60008060009054906101000a900473ffffffffffffffffffffffffffffffffffffffff1673ffffffffffffffffffffffffffffffffffffffff163373ffffffffffffffffffffffffffffffffffffffff161461067e576040517f08c379a0000000000000000000000000000000000000000000000000000000008152600401610675906116ad565b60405180910390fd5b6002600085815260200190815260200160002060000160009054906101000a900460ff166106e1576040517f08c379a00000000000000000000000000000000000000000000000000000000081526004016106d890611719565b60405180910390fd5b6002600085815260200190815260200160002060000160019054906101000a900460ff1615610745576040517f08c379a000000000000000000000000000000000000000000000000000000000815260040161073c90611785565b60405180910390fd5b600060026000868152602001908152602001600020905060018160000160016101000a81548160ff0219169083151502179055504281600701819055503373ffffffffffffffffffffffffffffffffffffffff16816002016040516107aa919061183d565b6040518091039020867f0817d7785001fb719ff0c30eaec13e8e4b8b62c17ed5d8c16b60f4ecaeaa14dd87876040516107e4929190611881565b60405180910390a460019150509392505050565b6000806060806060600080600080600260008b8152602001908152602001600020604051806101200160405290816000820160009054906101000a900460ff161515151581526020016000820160019054906101000a900460ff16151515158152602001600182015481526020016002820180546108759061160a565b80601f01602080910402602001604051908101604052809291908181526020018280546108a19061160a565b80156108ee5780601f106108c3576101008083540402835291602001916108ee565b820191906000526020600020905b8154815290600101906020018083116108d157829003601f168201915b505050505081526020016003820180546109079061160a565b80601f01602080910402602001604051908101604052809291908181526020018280546109339061160a565b80156109805780601f1061095557610100808354040283529160200191610980565b820191906000526020600020905b81548152906001019060200180831161096357829003601f168201915b505050505081526020016004820180546109999061160a565b80601f01602080910402602001604051908101604052809291908181526020018280546109c59061160a565b8015610a125780601f106109e757610100808354040283529160200191610a12565b820191906000526020600020905b8154815290600101906020018083116109f557829003601f168201915b505050505081526020016005820160009054906101000a900473ffffffffffffffffffffffffffffffffffffffff1673ffffffffffffffffffffffffffffffffffffffff1673ffffffffffffffffffffffffffffffffffffffff16815260200160068201548152602001600782015481525050905080600001518160200151826060015183608001518460a001518560c001518660e001518761010001519850985098509850985098509850985050919395975091939597565b60008054906101000a900473ffffffffffffffffffffffffffffffffffffffff1681565b60008060009054906101000a900473ffffffffffffffffffffffffffffffffffffffff1673ffffffffffffffffffffffffffffffffffffffff163373ffffffffffffffffffffffffffffffffffffffff161480610b965750600160003373ffffffffffffffffffffffffffffffffffffffff1673ffffffffffffffffffffffffffffffffffffffff16815260200190815260200160002060009054906101000a900460ff165b610bd5576040517f08c379a0000000000000000000000000000000000000000000000000000000008152600401610bcc906118f1565b60405180910390fd5b6000801b8803610c1a576040517f08c379a0000000000000000000000000000000000000000000000000000000008152600401610c119061195d565b60405180910390fd5b60008787905011610c60576040517f08c379a0000000000000000000000000000000000000000000000000000000008152600401610c57906119c9565b60405180910390fd5b6002600089815260200190815260200160002060000160009054906101000a900460ff1615610cc4576040517f08c379a0000000000000000000000000000000000000000000000000000000008152600401610cbb90611a35565b60405180910390fd5b6000801b60038888604051610cda9291906115c2565b90815260200160405180910390205414610d29576040517f08c379a0000000000000000000000000000000000000000000000000000000008152600401610d2090611aa1565b60405180910390fd5b60405180610120016040528060011515815260200160001515815260200189815260200188888080601f016020809104026020016040519081016040528093929190818152602001838380828437600081840152601f19601f82011690508083019250505050505050815260200186868080601f016020809104026020016040519081016040528093929190818152602001838380828437600081840152601f19601f82011690508083019250505050505050815260200184848080601f016020809104026020016040519081016040528093929190818152602001838380828437600081840152601f19601f8201169050808301925050505050505081526020013373ffffffffffffffffffffffffffffffffffffffff1681526020014281526020016000815250600260008a815260200190815260200160002060008201518160000160006101000a81548160ff02191690831515021790555060208201518160000160016101000a81548160ff021916908315150217905550604082015181600101556060820151816002019081610ec49190611c87565b506080820151816003019081610eda9190611c87565b5060a0820151816004019081610ef09190611c87565b5060c08201518160050160006101000a81548173ffffffffffffffffffffffffffffffffffffffff021916908373ffffffffffffffffffffffffffffffffffffffff16021790555060e0820151816006015561010082015181600701559050508760038888604051610f639291906115c2565b9081526020016040518091039020819055503373ffffffffffffffffffffffffffffffffffffffff168787604051610f9c9291906115c2565b6040518091039020897f4bc652978da53640766ebee16327102b0714550065c3bff783ed91d9c23d9a098888604051610fd6929190611881565b60405180910390a460019050979650505050505050565b60016020528060005260406000206000915054906101000a900460ff1681565b600080fd5b600080fd5b600080fd5b600080fd5b600080fd5b60008083601f84011261103c5761103b611017565b5b8235905067ffffffffffffffff8111156110595761105861101c565b5b60208301915083600182028301111561107557611074611021565b5b9250929050565b600080602083850312156110935761109261100d565b5b600083013567ffffffffffffffff8111156110b1576110b0611012565b5b6110bd85828601611026565b92509250509250929050565b60008115159050919050565b6110de816110c9565b82525050565b6000819050919050565b6110f7816110e4565b82525050565b600081519050919050565b600082825260208201905092915050565b60005b8381101561113757808201518184015260208101905061111c565b60008484015250505050565b6000601f19601f8301169050919050565b600061115f826110fd565b6111698185611108565b9350611179818560208601611119565b61118281611143565b840191505092915050565b600073ffffffffffffffffffffffffffffffffffffffff82169050919050565b60006111b88261118d565b9050919050565b6111c8816111ad565b82525050565b6000819050919050565b6111e1816111ce565b82525050565b6000610100820190506111fd600083018b6110d5565b61120a602083018a6110d5565b61121760408301896110ee565b81810360608301526112298188611154565b9050818103608083015261123d8187611154565b905061124c60a08301866111bf565b61125960c08301856111d8565b61126660e08301846111d8565b9998505050505050505050565b61127c816111ad565b811461128757600080fd5b50565b60008135905061129981611273565b92915050565b6112a8816110c9565b81146112b357600080fd5b50565b6000813590506112c58161129f565b92915050565b600080604083850312156112e2576112e161100d565b5b60006112f08582860161128a565b9250506020611301858286016112b6565b9150509250929050565b611314816110e4565b811461131f57600080fd5b50565b6000813590506113318161130b565b92915050565b6000806000604084860312156113505761134f61100d565b5b600061135e86828701611322565b935050602084013567ffffffffffffffff81111561137f5761137e611012565b5b61138b86828701611026565b92509250509250925092565b60006020820190506113ac60008301846110d5565b92915050565b6000602082840312156113c8576113c761100d565b5b60006113d684828501611322565b91505092915050565b6000610100820190506113f5600083018b6110d5565b611402602083018a6110d5565b81810360408301526114148189611154565b905081810360608301526114288188611154565b9050818103608083015261143c8187611154565b905061144b60a08301866111bf565b61145860c08301856111d8565b61146560e08301846111d8565b9998505050505050505050565b600060208201905061148760008301846111bf565b92915050565b60008060008060008060006080888a0312156114ac576114ab61100d565b5b60006114ba8a828b01611322565b975050602088013567ffffffffffffffff8111156114db576114da611012565b5b6114e78a828b01611026565b9650965050604088013567ffffffffffffffff81111561150a57611509611012565b5b6115168a828b01611026565b9450945050606088013567ffffffffffffffff81111561153957611538611012565b5b6115458a828b01611026565b925092505092959891949750929550565b60006020828403121561156c5761156b61100d565b5b600061157a8482850161128a565b91505092915050565b600081905092915050565b82818337600083830152505050565b60006115a98385611583565b93506115b683858461158e565b82840190509392505050565b60006115cf82848661159d565b91508190509392505050565b7f4e487b7100000000000000000000000000000000000000000000000000000000600052602260045260246000fd5b6000600282049050600182168061162257607f821691505b602082108103611635576116346115db565b5b50919050565b7f4f6e6c79206f776e65722063616e20706572666f726d2074686973206163746960008201527f6f6e000000000000000000000000000000000000000000000000000000000000602082015250565b6000611697602283611108565b91506116a28261163b565b604082019050919050565b600060208201905081810360008301526116c68161168a565b9050919050565b7f436572746966696361746520646f6573206e6f74206578697374000000000000600082015250565b6000611703601a83611108565b915061170e826116cd565b602082019050919050565b60006020820190508181036000830152611732816116f6565b9050919050565b7f436572746966696361746520616c7265616479207265766f6b65640000000000600082015250565b600061176f601b83611108565b915061177a82611739565b602082019050919050565b6000602082019050818103600083015261179e81611762565b9050919050565b60008190508160005260206000209050919050565b600081546117c78161160a565b6117d18186611583565b945060018216600081146117ec576001811461180157611834565b60ff1983168652811515820286019350611834565b61180a856117a5565b60005b8381101561182c5781548189015260018201915060208101905061180d565b838801955050505b50505092915050565b600061184982846117ba565b915081905092915050565b60006118608385611108565b935061186d83858461158e565b61187683611143565b840190509392505050565b6000602082019050818103600083015261189c818486611854565b90509392505050565b7f497373756572206973206e6f7420617574686f72697a65640000000000000000600082015250565b60006118db601883611108565b91506118e6826118a5565b602082019050919050565b6000602082019050818103600083015261190a816118ce565b9050919050565b7f4365727469666963617465206861736820697320726571756972656400000000600082015250565b6000611947601c83611108565b915061195282611911565b602082019050919050565b600060208201905081810360008301526119768161193a565b9050919050565b7f4365727469666963617465204944206973207265717569726564000000000000600082015250565b60006119b3601a83611108565b91506119be8261197d565b602082019050919050565b600060208201905081810360008301526119e2816119a6565b9050919050565b7f4365727469666963617465206861736820616c72656164792065786973747300600082015250565b6000611a1f601f83611108565b9150611a2a826119e9565b602082019050919050565b60006020820190508181036000830152611a4e81611a12565b9050919050565b7f436572746966696361746520494420616c726561647920657869737473000000600082015250565b6000611a8b601d83611108565b9150611a9682611a55565b602082019050919050565b60006020820190508181036000830152611aba81611a7e565b9050919050565b7f4e487b7100000000000000000000000000000000000000000000000000000000600052604160045260246000fd5b60006020601f8301049050919050565b600082821b905092915050565b600060088302611b3d7fffffffffffffffffffffffffffffffffffffffffffffffffffffffffffffffff82611b00565b611b478683611b00565b95508019841693508086168417925050509392505050565b6000819050919050565b6000611b84611b7f611b7a846111ce565b611b5f565b6111ce565b9050919050565b6000819050919050565b611b9e83611b69565b611bb2611baa82611b8b565b848454611b0d565b825550505050565b600090565b611bc7611bba565b611bd2818484611b95565b505050565b5b81811015611bf657611beb600082611bbf565b600181019050611bd8565b5050565b601f821115611c3b57611c0c816117a5565b611c1584611af0565b81016020851015611c24578190505b611c38611c3085611af0565b830182611bd7565b50505b505050565b600082821c905092915050565b6000611c5e60001984600802611c40565b1980831691505092915050565b6000611c778383611c4d565b9150826002028217905092915050565b611c90826110fd565b67ffffffffffffffff811115611ca957611ca8611ac1565b5b611cb3825461160a565b611cbe828285611bfa565b600060209050601f831160018114611cf15760008415611cdf578287015190505b611ce98582611c6b565b865550611d51565b601f198416611cff866117a5565b60005b82811015611d2757848901518255600182019150602085019450602081019050611d02565b86831015611d445784890151611d40601f891682611c4d565b8355505b6001600288020188555050505b50505050505056fea26469706673582212207ff98410739553c24f98c6e944d3a7e58d24f228c52bab85f899ea3ec86e919964736f6c63430008140033",
  "linkReferences": {},
  "deployedLinkReferences": {}
}